:020000040800F2
:100000008809002029020008990E0008210E000826
:10001000950E000847030008B71F00080000000005
:100020000000000000000000000000009510000823
:100030006109000800000000290F00088511000870
:10004000430200084302000843020008430200087C
:10005000430200084302000843020008430200086C
:10006000430200084302000843020008430200085C
:10007000430200084302000843020008430200084C
:10008000430200084302000843020008430200083C
:10009000430200084302000843020008430200082C
:1000A000430200084302000843020008430200081C
:1000B0004302000809140008430200084302000834
:1000C00043020008430200084302000843020008FC
:1000D00043020008CD1B0008430200084302000849
:1000E00043020008430200084302000843020008DC
:1000F00043020008430200084302000843020008CC
:1001000043020008430200080516000843020008E5
:1001100043020008430200086D170008430200086C
:10012000430200084302000843020008430200089B
:10013000430200084302000843020008430200088B
:10014000430200084302000843020008430200087B
:10015000DD03000843020008FD0300084302000815
:10016000430200084302000843020008430200085B
:10017000430200084302000843020008430200084B
:10018000430200084302000800F002F800F03CF8C7
:100190000AA090E8000C82448344AAF10107DA45E2
:1001A00001D100F031F8AFF2090EBAE80F0013F0F8
:1001B000010F18BFFB1A43F001031847A8200000E5
:1001C000C8200000103A24BF78C878C1FAD8520776
:1001D00024BF30C830C144BF04680C6070470000C1
:1001E0000023002400250026103A28BF78C1FBD840
:1001F000520728BF30C148BF0B6070471FB501F0E0
:100200001BFF1FBD10B510BD00F063F81146FFF7CE
:10021000F5FF01F0D3FE00F081F803B4FFF7F2FF21
:1002200003BC00F089F800000948804709480047EE
:10023000FEE7FEE7FEE7FEE7FEE7FEE7FEE7FEE796
:10024000FEE7FEE704480549054A064B70470000F3
:10025000891100088901000888030020880900200E
:10026000880500208805002010B5203AC0F00B80DA
:10027000B1E81850203AA0E81850B1E81850A0E8AA
:100280001850BFF4F5AF5FEA027C24BFB1E8185004
:10029000A0E8185044BF18C918C0BDE810405FEA74
:1002A000827C24BF51F8043B40F8043B08BF7047F0
:1002B000D20728BF31F8023B48BF11F8012B28BFF5
:1002C00020F8023B48BF00F8012B70477047704789
:1002D0007047754600F02CF8AE4605006946534657
:1002E00020F00700854618B020B5FFF7ABFFBDE84A
:1002F00020404FF000064FF000074FF000084FF08D
:10030000000B21F00701AC46ACE8C009ACE8C0091D
:10031000ACE8C009ACE8C0098D46704710B504468A
:10032000AFF300802046BDE81040FFF776BF000025
:10033000004870472403002001491820ABBEFEE7A7
:1003400026000200704700BFFEE710B503E010F87A
:10035000013B01F8013B131EA2F10104E2B2F6D108
:1003600010BD70B50346002000240AE0451C5D5D09
:100370001E5C45EA062521F81450851CA8B2651CB0
:10038000ACB255008542F1DC70BD024610780B78A6
:10039000984205D150784B78984201D1012070479E
:1003A0000020FCE7F0B50B46FF24FF2509E010F81C
:1003B000016B86EA0501074E765C86EA0405064E67
:1003C000745C1E1EA3F10107BBB2F0D1547015700E
:1003D000F0BD0000422000084221000810B5054988
:1003E000054800F057F818B10249034800F028F812
:1003F00010BD0000008800208864024010B50B4941
:100400000B4800F047F880B10849094800F018F897
:100410000021074800F02EF80648008806490880A9
:1004200000200649087001F061FB10BD0080002823
:10043000B864024026000020280000202E00002082
:100440000246094B9A4201D2084801E0064810389A
:1004500001F000531BB1064B0B40C36002E0044B9C
:100460000B4083607047000010640240006002404F
:100470007D0F7D0F21B1026842F00102026003E0AE
:10048000026822F00102026070470146486880B2AB
:100490007047000070B50246002000240025124E6F
:1004A000B24201D2114B01E00F4B103B104E0E40F7
:1004B00036B11E2606EAD124166806EA040502E0D3
:1004C000566906F0800501F000560EB15C6800E048
:1004D0001C68084E344004EA010616B10DB1012033
:1004E00000E0002070BD0000106402400060024087
:1004F0003C0F3C0F7D0F7D0F10B501F080034BB119
:1005000022B1436943F08003436103E0436923F070
:100510008003436180290BD02AB1036801F01E04D7
:100520002343036004E0036801F01E04A343036057
:1005300010BD000010B500220268134B1A40CC68B1
:100540000B6823434C6923438C692343CC692343C1
:100550000C6A23434C6A23438C6A23434C6B23432A
:100560008C6B23431A430260426922F00702D1E9EF
:100570000B3423431A4342610B6943604B68836029
:100580008B68C36010BD00003F801CF02DE9F04176
:1005900006460C4615462819202802DD0020BDE835
:1005A000F081284687B2044901EB470022463146D4
:1005B000FFF7D7FE0120F2E7500200202DE9F041BD
:1005C00007460C4615462819202802DD0020BDE804
:1005D000F081284686B2044800EB460122463846A0
:1005E00000F00EFC0120F2E75002002010B500F0F0
:1005F00017F90B220021822000F08AF910BD0000BB
:1006000000B589B02022054901A8FFF72DFE002280
:10061000102101A8FFF7D2FF09B000BD4422000855
:100620001CB50C22012101A8FFF7B0FFBDF80400A2
:1006300047F6FF7188420ED0002000F093FEBDF80F
:1006400004001849088047F6FF7001900C22012130
:1006500001A8FFF7B3FF00F05DFE124909880844C6
:1006600000900098012808DA012000900D490988BF
:10067000C1F1010000F076FE0CE00098B0F5FA6FD1
:1006800008DD4FF4FA60009006490988C1F5FA6068
:1006900000F068FE082201216846FFF78FFF0098EE
:1006A00080B21CBD3C0000201CB50E22012101A817
:1006B000FFF76CFFBDF8040047F6FF7188420ED0CB
:1006C000002000F04FFFBDF804001849088047F6ED
:1006D000FF7001900E22012101A8FFF76FFF00F0CB
:1006E00019FF12490988084400900098012808DA87
:1006F000012000900D490988C1F1010000F032FF8E
:100700000CE00098B0F5FA6F08DD4FF4FA60009045
:1007100006490988C1F5FA6000F024FF0A22012188
:100720006846FFF74BFF009880B21CBD3A000020DE
:1007300010B54EE027480078012806D0022814D0D2
:10074000032827D004283FD131E00121224801F0BD
:10075000E1FA012801D0002010BD1F4800785A2876
:1007600002D102201B49087032E001211A48401CC6
:1007700001F0D0FA012801D00020EDE716484078BA
:10078000A52803D103201349087002E00120114974
:1007900008701DE001211048801C01F0BBFA0128FF
:1007A00001D00020D8E704200A49087010E00A4868
:1007B0008178C01C01F0AEFA012801D00020CBE7FF
:1007C000012004490870C7E701200249087000BFF2
:1007D00000BFAFE734000020DA02002070B50E48F9
:1007E00040790D49097940EA01250B488479281997
:1007F000202800DD70BD284686B24FF6FF7000EA63
:10080000460600EA4404E2B2044881190248C01DC9
:10081000FFF79BFD00BFEDE7DA0200205002002049
:1008200008B522E000BFFFF783FF012800D008BD14
:100830000E488078801E81B26A460C48C01CFFF7C3
:10084000B1FD0A498978491C084A88186946FFF7AA
:100850009CFD012800D0E6E70448C078832802D137
:10086000FFF7BCFF00E000BF00BFDBE7DA020020BB
:1008700070B505460C46284686B24FF6FF7000EA72
:10088000460600EA440404F108000F4908805A2093
:100890000E490870A5204870601D88708220C870BD
:1008A000281208714D71E2B2094988190749891D5A
:1008B000FFF74BFD054BA01D1A18E01C81B2D81C98
:1008C000FFF770FD70BD0000300000209002002096
:1008D0005002002070B504460D4609200A490880E0
:1008E0005A200A490870A520487006208870832085
:1008F000C870201208714C718D71CA1D0421101F1F
:10090000FFF750FD70BD0000300000209002002075
:1009100070B506460D4614460CB1212C00DD70BDA5
:100920002819202800DDFAE7822E02D0832E0AD172
:1009300004E021462846FFF79BFF05E021462846B4
:10094000FFF7C8FF00E0EAE700BF0348018803485B
:1009500001F01CFA00BFE2E7300000209002002006
:100960007047000030B500EB40046000084C0444C0
:100970004500B4FBF5F4611E0A0C8BB2054C2280D5
:10098000054C238001244FF0C4452C8030BD00006D
:10099000804A5D0500002060000040600204FA23E8
:1009A000B2FBF3F291B2034A118001224FF0C4432B
:1009B0001A807047000060601CB502208DF80400AA
:1009C00000208DF8060003208DF8050001208DF829
:1009D00007000C220E21644800F0E9F90C220F21D7
:1009E000614800F0E4F90C2200215F4800F0DFF9D3
:1009F0000C2201215C4800F0DAF90C2207215B4847
:100A000000F0D5F90C220821584800F0D0F90C224A
:100A10000921564800F0CBF90C220A21534800F076
:100A2000C6F90C220B21514800F0C1F90C221146E5
:100A30004E4800F0BCF90C220D214C4800F0B7F9EB
:100A40000C220E21494800F0B2F90C220F21474830
:100A500000F0ADF90C220821434800F0A8F90C225F
:100A60000921414800F0A3F90C220A213E4800F078
:100A70009EF94CF20370009069463B4800F04FF934
:100A80004FF6807000906946384800F048F90C2213
:100A90000B21354800F08BF90C221146324800F04A
:100AA00086F90C220D21304800F081F90C22032137
:100AB0002E4800F07CF90C2204212C4800F077F934
:100AC0000C220521294800F072F90C220621274842
:100AD00000F06DF90C220221244800F068F90C2284
:100AE0000D21234800F063F90C220E21204800F06C
:100AF0005EF94FF4C040009069461D4800F00FF9C0
:100B00007C2000906946194800F009F94FF46050C4
:100B100000906946144800F002F90C2204211248A2
:100B200000F045F90C2205210F4800F040F9302073
:100B3000009069460C4800F0F2F80C2207210A48A0
:100B400000F035F90C2207210A4800F030F9802026
:100B500000906946044800F0E2F880200090694661
:100B6000044800F0DCF81CBD000C024000100240FC
:100B7000001802400004024010B50121084600F0B0
:100B8000E5F901217A2000F0D1F9FFF715FF00F017
:100B900001F810BD00B59DB0012000900190022029
:100BA00002900F2003900020049005904FF04050D9
:100BB00006900120079008900320099000200A90D9
:100BC0000B900C900D900E900F90109010201190A3
:100BD000000217908000199000201390129014903A
:100BE0001590169018901A9007A81B90CDF870D009
:100BF0000EA800F021F80121002000F003F81DB03C
:100C000000BD000051B18200A2F1C042126842F062
:100C100001038200A2F1C042136009E08200A2F148
:100C2000C0421268034B1A408300A3F1C0431A600C
:100C300070470000FEFF0F00D0E901121143C268A7
:100C40001143026911434269114382691143C26928
:100C50001143026A1143426A1143826A1143C26A14
:100C60001143026B114302689200A2F1C04211606D
:100C7000816808290BD101688900A1F1C041096888
:100C800041F0400201688900A1F1C0410A60416B56
:100C90000968426B526841EA0211426B926841EA6C
:100CA0000221426B928941EA0241426B128A41EA77
:100CB0000251426B127D41EA0261426B926911431B
:100CC0000268521C9200A2F1C0421160C16AB1F5E3
:100CD000804F1BD1816B0968826B526841EA021117
:100CE000826B926841EA0221826B128A41EA0251C8
:100CF000826B127D41EA0261826B92691143026844
:100D00009200A2F1C042C2F8041107E06FF07042F5
:100D100001688900A1F1C041C1F804217047F0B514
:100D20000A4600210023002400BF3DE0012505FA0A
:100D300001F3156805EA03049C4234D105684F00AD
:100D40000326BE40B543056015794E00B5400668E0
:100D5000354305601579012D02D01579022D16D184
:100D600085684F000326BE40B543856055794E0027
:100D7000B540866835438560456801268E40B54399
:100D80004560456896798E40B6B235434560C56882
:100D90004F000326BE40B543C560D5794E00B5402F
:100DA000C6683543C560491C1029BFD3F0BDF0B5F6
:100DB000002300244D07ED0E02FA05F3CE1000F1DA
:100DC000200555F826504E07F70E0F26BE40B543B6
:100DD000CF1000F1200646F82750CE1000F1200574
:100DE00055F8265045EA0304CE1000F1200545F8D9
:100DF0002640F0BD0183704742694A404261704716
:100E000070B503461C46002006E0265C451C4E5586
:100E1000655D0D54851CA8B255008542F5DC70BD9A
:100E200000BFFEE71CB52020009001208DF80400D3
:100E300000208DF8060003208DF8050001208DF8B4
:100E4000070069460D48FFF76AFF102000906946C9
:100E50000B48FFF764FF4020009069460848FFF701
:100E60005EFF20210548FFF7C5FF10210448FFF76A
:100E7000C1FF40210248FFF7BDFF1CBD001C02401E
:100E80000000024010B50121812000F04FF8FFF76B
:100E9000C9FF10BD00BFFEE77047000070B500211C
:100EA00000230F22C4781CB3174C246804F4E064B8
:100EB000C4F5E064C4F30721C1F10404E3B20A41BC
:100EC00044789C40E1B28478144021430C07210E01
:100ED0000E4C05786155047804F01F050124AC40E0
:100EE00005786D11AD0005F1E025C5F8004109E078
:100EF000047804F01F050124AC40054D06787611F6
:100F000045F8264070BD00000CED00E000E400E074
:100F100080E100E002490143024A1160704700008D
:100F20000000FA050CED00E07047000029B1064A08
:100F300012680243044B1A6004E0034A12688243B9
:100F4000014B1A60704700003038024029B1064A50
:100F500012680243044B1A6004E0034A1268824399
:100F6000014B1A60704700003838024029B1064A28
:100F700012680243044B1A6004E0034A1268824379
:100F8000014B1A60704700004038024029B1064A00
:100F900012680243044B1A6004E0034A1268824359
:100FA000014B1A607047000044380240F0B5002140
:100FB00000220024022500260223324F3F6807F05A
:100FC0000C0121B1042905D0082937D105E02E4FA5
:100FD000076036E02D4F076033E02A4F3F1F3F6820
:100FE000C7F38056274F3F1F3F6807F03F036EB19E
:100FF000264FB7FBF3F7DFF88CC0ACF1040CDCF83C
:1010000000C0CCF3881C07FB0CF40CE01E4FB7FBB0
:10101000F3F7DFF870C0ACF1040CDCF800C0CCF3DF
:10102000881C07FB0CF4174F3F1F3F68C7F30147AD
:101030007F1C7D00B4FBF5F7076002E0124F0760EC
:1010400000BF00BF0F4F3F6807F0F0010909104FC4
:101050007A5C0768D74047600A4F3F6807F4E05161
:10106000890A0B4F7A5C4768D7408760054F3F6815
:1010700007F46041490B064F7A5C4768D740C76068
:10108000F0BD0000083802400024F40000366E0174
:1010900000000020704700000CB500200190009077
:1010A0003448006840F480303249086000BF31485D
:1010B000006800F4003000900198401C01900098F6
:1010C00018B90198B0F5A04FF1D12A48006800F492
:1010D000003010B10120009001E000200090009845
:1010E000012846D123484030006840F08050214913
:1010F000403108602048006840F440401E490860C4
:101100001C48083000681B49083108600846006820
:1011100040F4004008600846006840F4A0500860B1
:101120001648091F0860081F006840F08070091FFA
:10113000086000BF0F48006800F000700028F9D078
:1011400040F205700E4908600A480830006820F037
:1011500003000849083108600846006840F00200B2
:10116000086000BF03480830006800F00C00082841
:10117000F8D10CBD00380240007000401854400700
:10118000003C02407047000010B51548006840F46C
:101190007000134908601348006840F001001149CD
:1011A000086000200F49083108600E4800680E49A9
:1011B00008400C4908600D48091D0860081F0068B8
:1011C00020F48020091F0860002006490C310860C7
:1011D000FFF762FF4FF0006001498039086010BDE1
:1011E00088ED00E000380240FFFFF6FE10300024DA
:1011F000F0B50C46154600210022068C4FF6FE770E
:101200003E400684018B028C4FF60C7631407E1CEA
:1012100006EA03162E4331434FF6F576324044F08A
:101220000106324301830284F0BDF0B50C46154639
:10123000002100220026078C4FF6EF7C07EA0C07FE
:101240000784018B028C4FF6FF7707EA041640F6FD
:10125000FF4739404FF6FF7707EA033739434FF628
:10126000FF7707EA052739434FF65F773A4046F0A4
:1012700010073A4301830284F0BDF0B50C461546D1
:10128000002100220026078C4FF6FF6C07EA0C07AE
:101290000784818B028C4FF6FF7707EA04264FF60E
:1012A0000C7739404FF6FF7707EA03172F4339438E
:1012B0004FF2FF573A4046F480773A4381830284E5
:1012C000F0BDF0B50C461546002100220026078C23
:1012D0004EF6FF7C07EA0C070784818B028C4FF6E1
:1012E000FF7707EA043640F6FF4739404FF6FF77AD
:1012F00007EA052739434FF6FF7707EA03373943F3
:1013000045F6FF773A4046F480573A43818302849A
:10131000F0BD000070B5094800F0BEFAA0F5FA452E
:101320000748008810B92C46204670BD0448008844
:101330004FF4FA4111FB00542046F6E70004004048
:101340003800002010B501210220FFF70FFE012117
:101350000420FFF7EBFD00F0CBF800F07BF800F085
:1013600033F810BD70B504460021154800F067FA47
:10137000B4F5FA4F09DA14F5FA4F06DD00201149E9
:10138000088004F5FA4005B210E04FF4FA4094FBEF
:10139000F0F000B20B4908804FF4FA4094FBF0F1F2
:1013A00000FB114005B205F5FA4005B22946044894
:1013B00000F0C6FA0121024800F041FA70BD0000B9
:1013C00000040040380000201CB5022206210D4810
:1013D000FFF7EDFC022207210A48FFF7E8FCC020D6
:1013E000009002208DF8040000208DF806000320F4
:1013F0008DF8050001208DF8070069460148FFF7C8
:101400008EFC1CBD0008024010B501210F4800F001
:1014100046FAD0B10D48008800F0100030B10C48F9
:101420000088401E00B20A49088005E0084800888C
:10143000401C00B2064908804FF4FA41034800F00E
:101440007FFA0121014800F0F7F910BD00040040C7
:101450003800002000B587B004A800F0E1FA0020B1
:10146000ADF810004FF47A4005900020ADF8180058
:101470006020ADF8120004A91C4800F08FFA00208B
:10148000ADF80400ADF806000120ADF8080000201A
:10149000ADF80A000F20ADF80C0001A9134800F0C8
:1014A0000FFA0420ADF8040001A9104800F008FA72
:1014B00000231A4602210D4800F0CDF900210B4807
:1014C00000F0ABF90121094800F0B3F901221146FF
:1014D000064800F02CFA4FF4FA41044800F030FAC4
:1014E0000121024800F0ABF907B000BD0004004044
:1014F00008B51D208DF8000001208DF801000320A3
:101500008DF8020001208DF803006846FFF7C6FC45
:1015100008BD000070B5094800F0BEF9A0F5FA4515
:101520000748008810B92C46204670BD0448008842
:101530004FF4FA4111FB00542046F6E7000C00403E
:101540003600002010B501210820FFF70FFD012112
:101550008020FFF7EBFC00F0C9F800F079F800F00C
:101560002FF810BD70B504460021134800F067F94C
:10157000B4F5FA4F08DA14F5FA4F05DD00200F49EB
:10158000088004F5FA450EE04FF4FA4094FBF0F0C1
:1015900000B20A4908804FF4FA4094FBF0F100FBD6
:1015A000114505F5FA452946034800F0C9F901211E
:1015B000014800F044F970BD000C004036000020E6
:1015C0001CB502220A210E48FFF7F1FB02220B2173
:1015D0000B48FFF7ECFB4FF44060009002208DF8C1
:1015E000040000208DF8060003208DF8050001207E
:1015F0008DF8070069460248FFF791FB1CBD00000B
:10160000001C024010B501210F4800F048F9D0B18C
:101610000D48008800F0100030B10C480088401ED2
:1016200000B20A49088005E008480088401C00B262
:10163000064908804FF4FA41034800F081F901217E
:10164000014800F0F9F810BD000C00403600002001
:1016500000B587B004A800F0E3F90020ADF8100051
:101660004FF47A4005900020ADF818006020ADF8E6
:10167000120004A91C4800F091F90020ADF8040004
:10168000ADF806000120ADF808000020ADF80A0012
:101690000F20ADF80C0001A9134800F011F9042047
:1016A000ADF8040001A9104800F00AF900231A4619
:1016B00002210D4800F0CFF800210B4800F0ADF8F2
:1016C0000121094800F0B5F801221146064800F052
:1016D0002EF94FF4FA41044800F032F90121024892
:1016E00000F0ADF807B000BD000C004008B5322096
:1016F0008DF8000002208DF801008DF80200012015
:101700008DF803006846FFF7C9FB08BD084800686C
:1017100008490968401A08490988884205D30448DD
:10172000006804490860012070470020FCE70000C1
:101730001000002018000020140000200848006855
:1017400008490968401A08490988884205D30448AD
:10175000006804490860012070470020FCE7000091
:1017600010000020200000201C00002010B50121E6
:10177000084800F094F840B10121064800F05CF8F8
:1017800005480068401C0449086020210348FFF711
:1017900033FB10BD0010004010000020001C024070
:1017A00010B501211020FFF7E1FB00F025F800F053
:1017B00001F810BD0EB5F920019040F28F60ADF830
:1017C00000000020ADF808008DF80A00ADF8020016
:1017D0006946084800F0E2F80121064800F029F8BF
:1017E00001221146034800F0A2F80121014800F04F
:1017F00026F80EBD0010004008B536208DF8000018
:1018000001208DF8010003208DF8020001208DF8E1
:1018100003006846FFF742FB08BD21B1028842F091
:101820008002028004E002884FF67F731A40028033
:101830007047CA4302827047CA430282704721B18F
:10184000028842F00102028004E002884FF6FE7333
:101850001A4002807047F0B50C4615461E4600211E
:10186000002200230189028B038C4FF6F877394060
:1018700021434FF6FC473A4040F201173A434FF6F6
:10188000DD773B404FF6FF7707EA06172F433B43D0
:10189000018102830384F0BD0146486A704730B578
:1018A0000246002000230024158A05EA01039589D9
:1018B00005EA010413B10CB1012000E0002030BDA5
:1018C00070B505460C46208850B92389A2886188E6
:1018D0002846FFF78DFCE188284600F033F825E024
:1018E000208804280AD12389A28861882846FFF726
:1018F0009CFCE188284600F02EF817E02088082894
:101900000AD12389A28861882846FFF7B6FCE188BE
:10191000284600F02DF809E02389A288618828462E
:10192000FFF7CFFCE188284600F02BF870BD1AB114
:1019300083890B43838102E083898B4383817047D2
:1019400041627047028B4FF6F3731A400283028B99
:101950000A4302837047028B4FF2FF331A4002831F
:10196000028B4FF6FF7303EA01231A430283704789
:10197000828B4FF6F3731A408283828B0A438283F1
:101980007047828B4FF2FF331A408283828B4FF66F
:10199000FF7303EA01231A438283704700220288FF
:1019A000184B98420ED0184B98420BD0B0F1804F94
:1019B00008D0164B984205D0154B984202D0154BD3
:1019C000984204D14FF68F731A404B881A43124B3A
:1019D000984207D0114B984204D04FF6FF431A406B
:1019E0000B891A4302804B68C3620B880385054B41
:1019F000984202D0044B984201D18B7A038601238E
:101A00008382704700000140000401400004004050
:101A100000080040000C004000100040001400408E
:101A20004FF0FF31416000210180018141808172CE
:101A30007047000000B58FB04FF00060009040206C
:101A40000390264802904FF48070049000200B9081
:101A50000C900D9008904FF4806006900020099043
:101A60001F48019000200E90079005904FF4003021
:101A70000A9069461B48FEF75DFD012210211948B6
:101A8000FEF73AFD012280211548001F00F0CCF935
:101A900000211448FEF7EEFC4FF00060009000209B
:101AA00003904FF4807009900F48029069460D48EA
:101AB0003038FEF73FFD012210210A483038FEF78A
:101AC0001BFD012240210648001F00F0ADF9012155
:101AD00004483038FEF7CEFC0FB000BD50000020A7
:101AE00004100140B86402405001002070B5214844
:101AF000007800B170BD20480088204909888842DC
:101B000000D1F7E71C4800881C490988884208DD95
:101B10001948008819490988401A84B2164805886E
:101B200005E016480088C0F5807084B20025202C9E
:101B300006DD20241148008820301049088001E08B
:101B40000E48058001200B49087000210C48FEF763
:101B500091FC0C480C490988084409490C3108607B
:101B60000748001D04600121001FFEF783FC00BF31
:101B7000C0E700002E0000202400002026000020E6
:101B8000B864024050000020280000201CB5072245
:101B900009210D48FFF70BF907220A210A48FFF730
:101BA00006F94FF4C060009002208DF80400002078
:101BB0008DF806008DF8050001208DF807006946B4
:101BC0000148FFF7ACF81CBD0000024010B540F220
:101BD0002441074800F031F948B1054800F0E6F922
:101BE0000448FEF752FCC0F580700349088010BD20
:101BF00000100140886402402A00002010B504460D
:101C000001218805FFF792F901210846FFF78EF9B7
:101C100001211020FFF7BAF900F00AF800F04EF8A1
:101C2000204600F01FF8FFF705FFFFF7AFFF10BDDC
:101C300000200649087006490880064908800649C0
:101C40000880064908800649088070472E00002059
:101C50002400002026000020280000202A00002068
:101C60002C0000201FB5044600940020ADF80400AD
:101C7000ADF80600ADF80800ADF80C000C20ADF88A
:101C80000A0069460C4800F027F9012240F224417D
:101C9000094800F0FCF8002240F22771064800F0E5
:101CA000F6F8002240F22661034800F0F0F8012126
:101CB000014800F0ADF81FBD0010014008B5252017
:101CC0008DF8000002208DF801008DF8020001203F
:101CD0008DF803006846FFF7E1F844208DF8000016
:101CE00001208DF801008DF802008DF80300684690
:101CF000FFF7D4F846208DF8000001208DF8010090
:101D000002208DF8020001208DF803006846FFF7DD
:101D1000C5F808BD30B5024619480088194D2D8810
:101D2000A84206DB16480088164D2D88401B84B259
:101D300007E014480088C0F58070114D2D882844B4
:101D400084B28C4201DA002030BD002314E00E483A
:101D50000C4D2D88405D02F8010B0A480088FF28D1
:101D600003D10020074D288004E006480088401C6D
:101D7000044D2880581C83B28B42E8DB0120E3E746
:101D80002A0000202C000020500100202DE9F04105
:101D900007460C461B4800881B490988884208DB17
:101DA00018480088C0F5807017490988084486B231
:101DB00005E01548008813490988401A86B2B442E4
:101DC00002DB0020BDE8F081002514E017F8010BCC
:101DD0000E490C4A128888540A480088FF2803D10B
:101DE00000200849088004E006480088401C054996
:101DF0000880681C85B2A542E8DBFFF777FE01206A
:101E0000E0E700002400002028000020500000200F
:101E100021B1828942F40052828104E082894DF628
:101E2000FF731A40828170471AB1838A0B43838201
:101E300002E0838A8B438382704770B50246002498
:101E400000230025002040F66A16B14200D100BFF1
:101E5000C1F3421501F01F03012606FA03F3012D19
:101E600002D19689334006E0022D02D1168A334012
:101E700001E0968A33400C12012606FA04F4168813
:101E8000344013B10CB1012000E0002070BDF0B56A
:101E90000346002400260025002040F66A17B942B8
:101EA00000D100BF1846C1F3421401F01F060127FC
:101EB00007FA06F5012C01D10C3004E0022C01D107
:101EC000103000E014301AB107682F43076002E0B9
:101ED0000768AF430760F0BD2DE9FF4705460E4692
:101EE0000024A14600BFA046B08900B100BF2C8AE3
:101EF00024F44054F08804432C82AC8941F20C60F5
:101F00008443B08831890843718908430443AC8114
:101F1000AC8A24F44074B0890443AC826846FFF76D
:101F200045F82048854202D01F48854202D1DDF89D
:101F30000C9001E0DDF80890A88900F4004040B161
:101F400009EBC90000EB091031684900B0FBF1F75B
:101F500007E009EBC90000EB091031688900B0FB0C
:101F6000F1F76420B7FBF0F004012009642101FBC4
:101F70001078A88900F4004040B1322000EBC8007E
:101F8000B0FBF1F000F00700044308E0322000EB62
:101F900008106421B0FBF1F000F00F0004432C8125
:101FA000BDE8FF8700100140001401400146888809
:101FB000C0F30800704700BFFEE700004FF4A060C8
:101FC000FEF7A8FFFEF75EFFFFF7EAFB4FF4E130F4
:101FD000FFF714FEFEF714FBFFF7B4F9FFF7B2FAB0
:101FE000FEF7CAFD20E0FFF791FB012812D1202166
:101FF0000E48FEF701FFFEF757FB0D494860FEF75C
:102000000FFB0B4908800888FEF7ACFC08494868BC
:10201000FEF7C4FCFFF792FB012805D1102105480B
:10202000FEF7EAFEFEF7E2FADDE70000001C0240E0
:1020300040000020000002404FF04070E1EE100A26
:10204000704700C1814001C0804101C0804100C192
:10205000814001C0804100C1814000C1814001C078
:10206000804101C0804100C1814000C1814001C068
:10207000804100C1814001C0804101C0804100C158
:10208000814001C0804100C1814000C1814001C048
:10209000804100C1814001C0804101C0804100C138
:1020A000814000C1814001C0804101C0804100C128
:1020B000814001C0804100C1814000C1814001C018
:1020C000804101C0804100C1814000C1814001C008
:1020D000804100C1814001C0804101C0804100C1F8
:1020E000814000C1814001C0804101C0804100C1E8
:1020F000814001C0804100C1814000C1814001C0D8
:10210000804100C1814001C0804101C0804100C1C7
:10211000814001C0804100C1814000C1814001C0B7
:10212000804101C0804100C1814000C1814001C0A7
:10213000804100C1814001C0804101C0804100C197
:10214000814000C0C101C30302C2C60607C705C55E
:10215000C404CC0C0DCD0FCFCE0E0ACACB0BC909CF
:1021600008C8D81819D91BDBDA1A1EDEDF1FDD1DDF
:102170001CDC14D4D515D71716D6D21213D311D10F
:10218000D010F03031F133F3F23236F6F737F5355F
:1021900034F43CFCFD3DFF3F3EFEFA3A3BFB39F98F
:1021A000F83828E8E929EB2B2AEAEE2E2FEF2DED5F
:1021B000EC2CE42425E527E7E62622E2E323E121CF
:1021C00020E0A06061A163A3A26266A6A767A565DF
:1021D00064A46CACAD6DAF6F6EAEAA6A6BAB69A94F
:1021E000A86878B8B979BB7B7ABABE7E7FBF7DBD5F
:1021F000BC7CB47475B577B7B67672B2B373B1718F
:1022000070B050909151935352929656579755955E
:1022100094549C5C5D9D5F9F9E5E5A9A9B5B99590E
:102220005898884849894B8B8A4A4E8E8F4F8D4DDE
:102230004C8C44848545874746868242438341814E
:10224000804000000B00160021002C0037004200E7
:10225000EF03000000000A000B000C000D000E0050
:102260000F00100084220008000000204000000041
:10227000C4010008C42200084000002048090000F2
:10228000E001000800000000010203040102030451
:10229000060708090000000014000000000000000C
:1022A0000A00000000000000000000000000000024
:1022B000000000000000000001000000000000001D
:0422C000000000001A
:040000050800018965
:00000001FF
